{
  "_format": "hh-sol-artifact-1",
  "contractName": "CampaignManager",
  "sourceName": "contracts/Campaigns.sol",
  "abi": [
    {
      "inputs": [
        {
          "internalType": "address",
          "name": "_admin",
          "type": "address"
        },
        {
          "internalType": "address",
          "name": "_xatAddress",
          "type": "address"
        }
      ],
      "stateMutability": "nonpayable",
      "type": "constructor"
    },
    {
      "inputs": [
        {
          "internalType": "string",
          "name": "_name",
          "type": "string"
        },
        {
          "internalType": "uint256",
          "name": "_campaignBudget",
          "type": "uint256"
        },
        {
          "internalType": "string",
          "name": "_metadataCID",
          "type": "string"
        }
      ],
      "name": "createCampaign",
      "outputs": [
        {
          "internalType": "uint256",
          "name": "",
          "type": "uint256"
        }
      ],
      "stateMutability": "nonpayable",
      "type": "function"
    }
  ],
  "bytecode": "0x608060405234801561001057600080fd5b5060405161047d38038061047d83398101604081905261002f9161007c565b600180546001600160a01b039384166001600160a01b031991821617909155600280549290931691161790556100ae565b80516001600160a01b038116811461007757600080fd5b919050565b6000806040838503121561008e578182fd5b61009783610060565b91506100a560208401610060565b90509250929050565b6103c0806100bd6000396000f3fe608060405234801561001057600080fd5b506004361061002b5760003560e01c8063c47d840414610030575b600080fd5b61004361003e3660046102cf565b610055565b60405190815260200160405180910390f35b60008061006160005490565b9050610071600080546001019055565b6040805160808101825286815260208082018790528183018690523360608301526000848152600382529290922081518051929391926100b49284920190610188565b506020828101516001830155604083015180516100d79260028501920190610188565b5060609190910151600390910180546001600160a01b0319166001600160a01b039283161790556002546040516323b872dd60e01b8152336004820152306024820152604481018790529116906323b872dd90606401602060405180830381600087803b15801561014757600080fd5b505af115801561015b573d6000803e3d6000fd5b505050506040513d601f19601f8201168201806040525081019061017f91906102a8565b50949350505050565b82805461019490610339565b90600052602060002090601f0160209004810192826101b657600085556101fc565b82601f106101cf57805160ff19168380011785556101fc565b828001600101855582156101fc579182015b828111156101fc5782518255916020019190600101906101e1565b5061020892915061020c565b5090565b5b80821115610208576000815560010161020d565b600082601f830112610231578081fd5b813567ffffffffffffffff8082111561024c5761024c610374565b604051601f8301601f19908116603f0116810190828211818310171561027457610274610374565b8160405283815286602085880101111561028c578485fd5b8360208701602083013792830160200193909352509392505050565b6000602082840312156102b9578081fd5b815180151581146102c8578182fd5b9392505050565b6000806000606084860312156102e3578182fd5b833567ffffffffffffffff808211156102fa578384fd5b61030687838801610221565b9450602086013593506040860135915080821115610322578283fd5b5061032f86828701610221565b9150509250925092565b600181811c9082168061034d57607f821691505b6020821081141561036e57634e487b7160e01b600052602260045260246000fd5b50919050565b634e487b7160e01b600052604160045260246000fdfea2646970667358221220ba1abac5208281c27ce6950e1d4cd82e5d0a2668044caa6e7381a54a143368c464736f6c63430008040033",
  "linkReferences": {},
  "deployedLinkReferences": {}
}